:100000000C94AB000C94C8000C94C8000C94C8006D
:100010000C94C8000C94C8000C94C8000C94C80040
:100020000C94C8000C94C8000C94C8000C94C80030
:100030000C94C8000C94C8000C94C8000C94C80020
:100040000C949E030C94C8000C94C8000C94C80037
:100050000C94C8006E616E00696E660000407A10F4
:10006000F35A00A0724E18090010A5D4E80000E869
:100070007648170000E40B54020000CA9A3B0000C7
:1000800000E1F505000080969800000040420F0056
:100090000000A08601000000102700000000E80317
:1000A000000000006400000000000A0000000000E2
:1000B0000100000000002C76D888DC674F0823DFA1
:1000C000C1DFAE59E1B1B796E5E3E453C63AE65174
:1000D000997696E8E6C28426EB898C9B62ED407C9B
:1000E0006FFCEFBC9C9F40F2BAA56FA5F490055A37
:1000F0002AF75C936B6CF9676DC11BFCE0E40D475C
:10010000FEF520E6B500D0ED902E0300943577057E
:100110000080841E080000204E0A000000C80C3336
:100120003333330F986E12831141EF8D2114893BC5
:10013000E65516CFFEE6DB18D1844B381BF77C1D45
:10014000901DA4BBE424203284725E228100C9F198
:1001500024ECA1E53D2711241FBECFE5D8E0DEBF8A
:10016000CDBF10E0A0E6B0E0E0E4F6E102C005900B
:100170000D92A037B107D9F720E0A0E7B0E001C0A9
:100180001D92A437B207E1F70E940C040C941E0BD9
:100190000C940000672B09F0DFC0009721F48BB3AB
:1001A0008E7F8BBB08958130910521F48BB38D7FB9
:1001B0008BBB08958230910521F48BB38B7F8BBB71
:1001C00008958330910521F48BB3877F8BBB08950D
:1001D0008430910521F48BB38F7E8BBB08958530DD
:1001E000910521F48BB38F7D8BBB089586309105EB
:1001F00021F48BB38F7B8BBB08958730910521F45D
:100200008BB38F778BBB08958A30910521F488B327
:100210008E7F88BB08958B30910521F488B38D7F44
:1002200088BB08958C30910521F488B38B7F88BBFF
:1002300008958D30910521F488B3877F88BB089598
:100240008E30910521F488B38F7E88BB08958F305E
:10025000910521F488B38F7D88BB08958031910585
:1002600021F488B38F7B88BB08958131910521F4F7
:1002700088B38F7788BB08958431910521F485B3C5
:100280008E7F85BB08958531910521F485B38D7FDF
:1002900085BB08958631910521F485B38B7F85BB9D
:1002A00008958731910521F485B3877F85BB089533
:1002B0008831910521F485B38F7E85BB08958931FE
:1002C000910521F485B38F7D85BB08958A31910511
:1002D00021F485B38F7B85BB08958B31910521F483
:1002E00085B38F7785BB08958E31910521F482B354
:1002F0008E7F82BB08958F31910521F482B38D7F6B
:1003000082BB08958032910521F482B38B7F82BB3A
:1003100008958132910521F482B3877F82BB0895CD
:100320008232910521F482B38F7E82BB089583329D
:10033000910521F482B38F7D82BB089584329105AB
:1003400021F482B38F7B82BB0895859709F0E1C0C9
:1003500082B38F7782BB0895009721F48BB38160BD
:100360008BBB08958130910521F48BB382608BBBE8
:1003700008958230910521F48BB384608BBB08957E
:100380008330910521F48BB388608BBB0895843052
:10039000910521F48BB380618BBB08958530910565
:1003A00021F48BB380628BBB08958630910521F4D4
:1003B0008BB380648BBB08958730910521F48BB398
:1003C00080688BBB08958A30910521F488B38160E1
:1003D00088BB08958B30910521F488B3826088BB77
:1003E00008958C30910521F488B3846088BB08950A
:1003F0008D30910521F488B3886088BB08958E30D4
:10040000910521F488B3806188BB08958F309105F0
:1004100021F488B3806288BB08958031910521F46E
:1004200088B3806488BB08958131910521F488B335
:10043000806888BB08958431910521F485B381607B
:1004400085BB08958531910521F485B3826085BB14
:1004500008958631910521F485B3846085BB0895A4
:100460008731910521F485B3886085BB0895883173
:10047000910521F485B3806185BB0895893191058B
:1004800021F485B3806285BB08958A31910521F4FA
:1004900085B3806485BB08958B31910521F485B3C4
:1004A000806885BB08958E31910521F482B3816007
:1004B00082BB08958F31910521F482B3826082BBA3
:1004C00008958032910521F482B3846082BB08953F
:1004D0008132910521F482B3886082BB0895823213
:1004E000910521F482B3806182BB08958332910526
:1004F00021F482B3806282BB08958432910521F495
:1005000082B3806482BB0895859719F482B38068B2
:1005100082BB0895CF93C82F80FF07C061E070E0D1
:1005200082E290E00E94CA0006C060E070E082E2D1
:1005300090E00E94CA00C1FF07C061E070E083E262
:1005400090E00E94CA0006C060E070E083E290E0A4
:100550000E94CA00C2FF07C061E070E084E290E040
:100560000E94CA0006C060E070E084E290E00E9451
:10057000CA00C3FF07C061E070E085E290E00E941E
:10058000CA0006C060E070E085E290E00E94CA0008
:10059000CF910895CF93C82F60E070E08AE190E09A
:1005A0000E94CA008C2F0E948A0261E070E08BE1F9
:1005B00090E00E94CA0089EF90E00197F1F700C037
:1005C000000060E070E08BE190E00E94CA0089EFDB
:1005D00090E00197F1F700C00000CF910895CF930C
:1005E000813061F480E8860FC62FCF7082958F70BE
:1005F0000E94CA028C2F0E94CA020DC0823059F498
:1006000080EC860FC62FCF7082958F700E94CA0231
:100610008C2F0E94CA02CF91089580E00E948A0226
:1006200087E893E10197F1F700C0000083E00E94A2
:10063000CA0281EE94E00197F1F700C0000083E068
:100640000E94CA028DEB9AE00197F1F700C000000A
:1006500083E00E94CA0282E00E94CA0282E00E94F5
:10066000CA0288E00E94CA0280E00E94CA028CE0AE
:100670000E94CA0280E00E94CA0286E00E94CA026A
:100680000895CF93DF93D82FDF70C82FC07F61E02C
:1006900070E08AE190E00E94CA008C2F82958F70F2
:1006A0000E948A0261E070E08BE190E00E94CA0043
:1006B00089EF90E00197F1F700C0000060E070E082
:1006C0008BE190E00E94CA0089EF90E00197F1F77A
:1006D00000C000008D2F0E948A0261E070E08BE173
:1006E00090E00E94CA0089EF90E00197F1F700C006
:1006F000000060E070E08BE190E00E94CA0089EFAA
:1007000090E00197F1F700C00000DF91CF910895CC
:100710000F931F93CF93DF938C01C0E0D0E003C011
:100720000E9441032196F801EC0FFD1F8081811189
:10073000F7CFDF91CF911F910F9108951F920F92E4
:100740000FB60F9211242F933F934F935F936F93A4
:100750007F938F939F93AF93BF93EF93FF9364B176
:1007600070E080E090E00E94B704609370007093A6
:100770007100809372009093730065B1637070E0B4
:1007800080E090E00E94B90420E030E040E853E4CB
:100790000E944505209170003091710040917200D7
:1007A000509173000E944B0460937000709371002D
:1007B000809372009093730060917000709171004B
:1007C000809172009091730020E030E040E950E4A5
:1007D0000E94450520E030E040E85AE30E944505CC
:1007E0006093700070937100809372009093730017
:1007F00086B1806486B9FF91EF91BF91AF919F91CF
:100800008F917F916F915F914F913F912F910F90B9
:100810000FBE0F901F901895CF93DF93CDB7DEB723
:100820002E970FB6F894DEBF0FBECDBF8FEF81BB02
:1008300084BB83E087B98DE886B9789486B18064FB
:1008400086B90E940D0361E081E00E94EF02809171
:10085000700090917100A0917200B0917300BF93ED
:10086000AF939F938F9380E690E09F938F931F9217
:100870008EE08F938E010F5F1F4F1F930F930E9487
:10088000900AC8010E9488030FB6F894DEBF0FBE1D
:10089000CDBFD9CF5058BB27AA270E9462040C9421
:1008A0000B050E94FD0438F00E94040520F039F485
:1008B0009F3F19F426F40C94FA040EF4E095E7FB3C
:1008C0000C94F404E92F0E941C0558F3BA17620730
:1008D00073078407950720F079F4A6F50C943E057C
:1008E0000EF4E0950B2EBA2FA02D0B01B90190014B
:1008F0000C01CA01A0011124FF27591B99F0593F8F
:1009000050F4503E68F11A16F040A22F232F342FD6
:100910004427585FF3CF469537952795A795F04024
:100920005395C9F77EF41F16BA0B620B730B840B39
:10093000BAF09150A1F0FF0FBB1F661F771F881FF1
:10094000C2F70EC0BA0F621F731F841F48F4879549
:1009500077956795B795F7959E3F08F0B0CF93953B
:10096000880F08F09927EE0F979587950895E894DA
:1009700009C097FB3EF490958095709561957F4FE7
:100980008F4F9F4F9923A9F0F92F96E9BB27939595
:10099000F695879577956795B795F111F8CFFAF4A5
:1009A000BB0F11F460FF1BC06F5F7F4F8F4F9F4FD6
:1009B00016C0882311F096E911C0772321F09EE834
:1009C000872F762F05C0662371F096E8862F70E09A
:1009D00060E02AF09A95660F771F881FDAF7880F74
:1009E0009695879597F9089597F99F6780E870E045
:1009F00060E008959FEF80EC089500240A94161695
:100A0000170618060906089500240A9412161306FC
:100A1000140605060895092E0394000C11F488238A
:100A200052F0BB0F40F4BF2B11F460FF04C06F5FA6
:100A30007F4F8F4F9F4F089557FD9058440F551F7C
:100A400059F05F3F71F04795880F97FB991F61F050
:100A50009F3F79F087950895121613061406551FC7
:100A6000F2CF4695F1DF08C0161617061806991F33
:100A7000F1CF86957105610508940895E894BB2728
:100A800066277727CB0197F908950E9458050C94A3
:100A90000B050E94FD0438F00E94040520F0952308
:100AA00011F00C94F4040C94FA0411240C943F05F6
:100AB0000E941C0570F3959FC1F3950F50E0551FE0
:100AC000629FF001729FBB27F00DB11D639FAA27A3
:100AD000F00DB11DAA1F649F6627B00DA11D661FF2
:100AE000829F2227B00DA11D621F739FB00DA11D13
:100AF000621F839FA00D611D221F749F3327A00DCD
:100B0000611D231F849F600D211D822F762F6A2F68
:100B100011249F5750409AF0F1F088234AF0EE0FCD
:100B2000FF1FBB1F661F771F881F91505040A9F7FA
:100B30009E3F510580F00C94F4040C943F055F3FF8
:100B4000E4F3983ED4F3869577956795B795F79536
:100B5000E7959F5FC1F7FE2B880F911D96958795AE
:100B600097F90895A0E1B0E0E8EBF5E00C942F09C7
:100B70007C011B016A01FC0117821682838181FFBF
:100B800044C39E012F5F3F4F3901F7019381F1016B
:100B900093FD859193FF81911F01882309F431C34F
:100BA000853239F493FD859193FF81911F01853240
:100BB00039F4B70190E00E94540A56016501E5CF6F
:100BC00010E0512C912CFFE1F915D8F08B3279F01F
:100BD00038F4803279F08332A1F4F92DF0612EC01F
:100BE0008D3261F0803369F4292D21602DC0392DBB
:100BF0003260932E892D8460982E2AC0E92DE860FA
:100C000015C097FC2DC020ED280F2A3088F496FEE1
:100C100006C03AE0139F200D1124122F19C08AE05C
:100C2000589E200D1124522EE92DE0629E2E10C0F8
:100C30008E3231F496FCE5C2F92DF0649F2E08C087
:100C40008C3621F4292D2068922E02C0883641F47A
:100C5000F10193FD859193FF81911F018111B3CF24
:100C60009BEB980F933020F4992D9061805E07C024
:100C70009BE9980F933008F066C1992D9F7E96FFEF
:100C800016E09F73992E853619F49064992E08C04A
:100C9000863621F4392F3068932E02C0111111507D
:100CA00097FE07C01C3350F444244394410E27E0C0
:100CB0000BC0183038F027E017E005C027E09CE3B0
:100CC000492E02C0212F412C560184E0A80EB11CF0
:100CD000F6016081718182819381042DA3010E94BC
:100CE00066096C01F981FC87F0FF02C0F3FF06C0C2
:100CF00091FC06C092FE06C000E205C00DE203C0F2
:100D00000BE201C000E08C858C7019F001115AC211
:100D10009BC297FE10C04C0CFC85F4FF04C08A8176
:100D2000813309F44A94141474F528E0241578F5F5
:100D300088E0482E2CC096FC2AC0812F90E08C15AC
:100D40009D059CF03CEFC3163FEFD30674F0892D50
:100D50008068982E0AC0E2E0F0E0EC0FFD1FE10F82
:100D6000F11D8081803319F411501111F4CF97FED9
:100D70000EC044244394410E812F90E0C816D9063A
:100D80002CF41C1904C04424439401C010E097FEC5
:100D900006C01C141D0434F4C601019605C085E08C
:100DA00090E002C081E090E001110196112331F042
:100DB000212F30E02F5F3F4F820F931F252D30E012
:100DC0008217930714F4581A01C0512C892D897089
:100DD00049F4552039F0B70180E290E00E94540AAE
:100DE0005A94F7CF002329F0B701802F90E00E949A
:100DF000540A93FC09C0552039F0B70180E390E014
:100E00000E94540A5A94F7CF97FE4CC04601D7FE71
:100E100002C0812C912CC60188199909F301E80FB1
:100E2000F91FFE87ED87960124193109388B2F872A
:100E3000012F10E01195019511093FEF83169306DC
:100E400029F4B7018EE290E00E94540AC814D90434
:100E50004CF08F8598898815990524F4ED85FE85D9
:100E6000818101C080E3F1E08F1A91082D853E85D4
:100E70002F5F3F4F3E872D87801691062CF0B701DC
:100E800090E00E94540AD9CFC814D90441F49A8141
:100E9000963320F4953319F43C8534FF81E3B70190
:100EA00090E04EC08A81813319F09C859F7E9C879B
:100EB000B70190E00E94540A111105C094FC18C0BB
:100EC00085E690E017C0B7018EE290E00E94540AD8
:100ED0001E5F82E001E0080FF301E80FF11D808141
:100EE000B70190E00E94540A802F0113F3CFE6CFA0
:100EF00085E490E0B7010E94540AD7FC06C0C114F3
:100F0000D10441F4EC85E4FF05C0D194C194D1082B
:100F10008DE201C08BE2B70190E00E94540A80E3A9
:100F20002AE0C216D1042CF08F5FFAE0CF1AD10864
:100F3000F7CFB70190E00E94540AB701C601C096EE
:100F40000E94540A54C1833631F0833779F08335D7
:100F500009F056C020C0560132E0A30EB11CF601C4
:100F60008081898301E010E0630112C05601F2E044
:100F7000AF0EB11CF601C080D18096FE03C0612F78
:100F800070E002C06FEF7FEFC6010E94490A8C013A
:100F9000F92DFF7714C0560122E0A20EB11CF60114
:100FA000C080D18096FE03C0612F70E002C06FEF59
:100FB0007FEFC6010E943E0A8C01F92DF0689F2E3A
:100FC000F3FD1AC0852D90E008171907A8F4B701A2
:100FD00080E290E00E94540A5A94F4CFF60197FC04
:100FE000859197FE81916F01B70190E00E94540AAC
:100FF00051105A94015011090115110579F7F7C0E4
:10100000843611F0893661F5560197FE09C024E057
:10101000A20EB11CF60160817181828193810AC0A8
:10102000F2E0AF0EB11CF60160817181072E000C59
:10103000880B990BF92DFF769F2E97FF09C090958D
:101040008095709561957F4F8F4F9F4FF0689F2ED1
:101050002AE030E0A3010E94C00AC82EC6183FC093
:10106000092D853721F40F7E2AE030E01DC0097F6D
:101070008F3691F018F4883559F0C3C0803719F0D5
:10108000883711F0BEC0006104FF09C0046007C0CA
:1010900094FE08C0066006C028E030E005C020E1EC
:1010A00030E002C020E132E0560107FF09C084E0D1
:1010B000A80EB11CF601608171818281938108C004
:1010C000F2E0AF0EB11CF6016081718180E090E02A
:1010D000A3010E94C00AC82EC6180F77902E96FE54
:1010E0000BC0092D0E7FC11650F494FE0AC092FC6D
:1010F00008C0092D0E7E05C0DC2C092D03C0DC2C98
:1011000001C0D12E04FF0DC0FE01EC0DF11D808148
:10111000803311F4097E09C002FF06C0D394D39432
:1011200004C0802F867809F0D39403FD11C000FF1E
:1011300006C01C2DD51480F4150D1D190DC0D51435
:1011400058F4B70180E290E00E94540AD394F7CF9C
:10115000D51410F45D1801C0512C04FF10C0B70164
:1011600080E390E00E94540A02FF17C001FD03C013
:1011700088E790E002C088E590E0B7010CC0802FBE
:10118000867859F001FF02C08BE201C080E207FDC2
:101190008DE2B70190E00E94540AC11638F4B701FD
:1011A00080E390E00E94540A1150F7CFCA94F301F3
:1011B000EC0DF11D8081B70190E00E94540AC1102E
:1011C000F5CF15C0F4E0F51560F584E0581A93FEEC
:1011D0001FC0011127C02C8523FF2AC004E510E0A1
:1011E000392D3071932EF8018491811124C055203E
:1011F00009F4E4CCB70180E290E00E94540A5A94CA
:10120000F6CFF7018681978126C08FEF9FEF23C02D
:10121000B70180E290E00E94540A5A945110F8CF2E
:10122000D8CF512CB701802F90E00E94540AD3CF21
:1012300008E510E0D5CF91108052B70190E00E94F0
:10124000540A0F5F1F4FCFCF23E0251510F483E022
:10125000BDCF512CC0CF6096E2E10C944B092F9288
:101260003F924F925F926F927F928F929F92AF9236
:10127000BF92CF92DF92EF92FF920F931F93CF9383
:10128000DF93CDB7DEB7CA1BDB0B0FB6F894DEBF1A
:101290000FBECDBF09942A88398848885F846E8440
:1012A0007D848C849B84AA84B984C884DF80EE808A
:1012B000FD800C811B81AA81B981CE0FD11D0FB693
:1012C000F894DEBF0FBECDBFED010895283008F0C1
:1012D00027E03327DA01990F311D87FD91600096D1
:1012E0006105710539F432602E5F3D9330E32A9534
:1012F000E1F708959F3F30F080387105610509F0EE
:101300003C5F3C5F3D93913008F08068911DDF9316
:10131000CF931F930F93FF92EF92192F987F96957B
:10132000E92F96959695E90FFF27EA54FF4F9927E5
:101330003327EE24FF24A701E701059008940794C2
:1013400028F4360FE71EF81E491F511D660F771F40
:10135000881F991F0694A1F70590079428F4E70EBB
:10136000F81E491F561FC11D770F881F991F661F42
:101370000694A1F70590079428F4F80E491F561F0C
:10138000C71FD11D880F991F661F771F0694A1F7ED
:101390000590079420F4490F561FC71FD81F990FB7
:1013A000661F771F881F0694A9F784911095177000
:1013B00041F0D695C79557954795F794E7941A95B8
:1013C000C1F7ECE5F0E068941590159135916591C1
:1013D000959105907FE27395E118F10A430B560B46
:1013E000C90BD009C0F7E10CF11E431F561FC91FDE
:1013F000D01D7EF4703311F48A95E6CFE894015045
:1014000030F0080F0AF40027021708F4202F239564
:10141000022F7A3328F079E37D932A95E9F710C0FB
:101420007D932A9589F60694979567953795179534
:101430001794E118F10A430B560BC90BD00998F029
:1014400023957E9173957A3308F070E37C93201393
:10145000B8F77E9170617D9330F0839571E37D9351
:1014600070E32A95E1F71124EF90FF900F911F91FF
:10147000CF91DF91992787FD90950895FC01059004
:10148000615070400110D8F7809590958E0F9F1F86
:101490000895FC016150704001900110D8F78095CB
:1014A00090958E0F9F1F08950F931F93CF93DF93F7
:1014B000FB01238121FD03C08FEF9FEF2CC022FF92
:1014C00016C046815781248135814217530744F461
:1014D000A081B1819D012F5F3F4F318320838C9389
:1014E000268137812F5F3F4F3783268314C08B01BE
:1014F000EC01FB010084F185E02D0995892BE1F6D3
:10150000D80116968D919C911797019617969C93EA
:101510008E931697CE01DF91CF911F910F91089571
:10152000AEE0B0E0E6E9FAE00C943D090D891E89D1
:101530008F89988D26E02C831A83098397FF02C038
:1015400080E090E801979E838D83AE01455E5F4FFA
:10155000698D7A8DCE0101960E94B2054D815E8122
:1015600057FD0AC02F813885421753070CF49A01A2
:10157000F801E20FF31F10822E96E4E00C94590953
:10158000FA01AA27283051F1203181F1E8946F93B4
:101590006E7F6E5F7F4F8F4F9F4FAF4FB1E03ED05A
:1015A000B4E03CD0670F781F891F9A1FA11D680FF8
:1015B000791F8A1F911DA11D6A0F711D811D911D2B
:1015C000A11D20D009F468943F912AE0269F1124A0
:1015D0003019305D3193DEF6CF010895462F477004
:1015E000405D4193B3E00FD0C9F7F6CF462F4F705F
:1015F000405D4A3318F0495D31FD4052419302D0BD
:10160000A9F7EACFB4E0A695979587957795679562
:10161000BA95C9F700976105710508959B01AC0162
:101620000A2E06945795479537952795BA95C9F789
:10163000620F731F841F951FA01D0895F894FFCF9C
:10164000566F6C746167653A2025332E3266000050
:00000001FF
