S0150000507261637469636520436F64652E7372656349
S11300000C942A000C9434000C9434000C943400A6
S11300100C9434000C9434000C9434000C9434008C
S11300200C9434000C9434000C9434000C9434007C
S11300300C9434000C9434000C9434000C9434006C
S11300400C9434000C9434000C9434000C9434005C
S11300500C94340011241FBECFE5D8E0DEBFCDBF21
S11300600E9436000C9455000C94000089E084BB77
S113007017BA15BA86B38823ECF3982F917082FBD4
S1130080222720F9920F82958170890F81FB4427E2
S113009040F950E09A01220F331F220F331F220F21
S11100A0331F8170822B85BBE5CFF894FFCF10
S9030000FC
