S00E00006D61737465722E737265638A
S11300000C942A000C9434000C9434000C943400A6
S11300100C9434000C9434000C9434000C9434008C
S11300200C9434000C9434000C9434000C9434007C
S11300300C9434000C9434000C9434000C9434006C
S11300400C9434000C9434000C9434000C9434005C
S11300500C94340011241FBECFE5D8E0DEBFCDBF21
S11300600E9441000C944F000C94000087B3806CF4
S113007087BB81E58DB908951FB8779BFECF8FB1FB
S113008008958FEF8ABB0E9436000E943C008BBB10
S11300908FEC97E00197F1F700C00000F6CFF894D9
S10500A0FFCF8C
S9030000FC
