S00D0000736C6176652E73726563FC
S11300000C942A000C9434000C9434000C943400A6
S11300100C9434000C9434000C9434000C9434008C
S11300200C9434000C9434000C9434000C9434007C
S11300300C9436000C9434000C9434000C9434006A
S11300400C9434000C9434000C9434000C9434005C
S11300500C94340011241FBECFE5D8E0DEBFCDBF21
S11300600E944A000C9451000C9400001F920F92BD
S11300700FB60F9211248F9389B38FB98F910F907C
S11300800FBE0F901F90189587B3806487BB81ECD7
S11300908DB908951ABA8FEF84BB0E9444007894F6
S10900A0FFCFF894FFCF2E
S9030000FC
