:100000000C942A000C943C000C943C000C943E0090
:100010000C943C000C943C000C943C000C943C0070
:100020000C943C000C943C000C943C000C943C0060
:100030000C943C000C943C000C943C000C943C0050
:100040000C943C000C943C000C943C000C943C0040
:100050000C943C0011241FBECFE5D8E0DEBFCDBF1D
:1000600020E0A0E6B0E001C01D92A936B207E1F79A
:100070000E9452000C949F000C9400001F920F925B
:100080000FB60F9211248F939F939091600081E09F
:100090008927809360009F918F910F900FBE0F90E2
:1000A0001F90189584B7806484BF8BB780628BBF24
:1000B000789417BA8FEF8ABB81BBE1E6F0E010823B
:1000C00086E0818382838383848385838EEF868326
:1000D000878380916000882399F030E00FC0E32F80
:1000E000F0E0EF59FF4F2081822F90E0880F991F99
:1000F000221F2227221F822B80833F5F383078F314
:1001000040E050E017C0E22FF0E081E090E0022EE6
:1001100002C0880F991F0A94E2F7809582BBEF59BD
:10012000FF4F80818BBB2F5F01C020E0283058F348
:100130004F5F5F4F403D87E05807BCF3CACFF8944C
:02014000FFCFEF
:00000001FF
